{"abi":[{"type":"constructor","inputs":[{"name":"_owners","type":"address[]","internalType":"address[]"},{"name":"_threshold","type":"uint256","internalType":"uint256"}],"stateMutability":"payable"},{"type":"receive","stateMutability":"payable"},{"type":"function","name":"TIMELOCK_DURATION","inputs":[],"outputs":[{"name":"","type":"uint256","internalType":"uint256"}],"stateMutability":"view"},{"type":"function","name":"balances","inputs":[{"name":"","type":"address","internalType":"address"}],"outputs":[{"name":"","type":"uint256","internalType":"uint256"}],"stateMutability":"view"},{"type":"function","name":"claim","inputs":[{"name":"proof","type":"bytes32[]","internalType":"bytes32[]"},{"name":"amount","type":"uint256","internalType":"uint256"}],"outputs":[],"stateMutability":"nonpayable"},{"type":"function","name":"claimed","inputs":[{"name":"","type":"address","internalType":"address"}],"outputs":[{"name":"","type":"bool","internalType":"bool"}],"stateMutability":"view"},{"type":"function","name":"confirmTransaction","inputs":[{"name":"txId","type":"uint256","internalType":"uint256"}],"outputs":[],"stateMutability":"nonpayable"},{"type":"function","name":"confirmed","inputs":[{"name":"","type":"uint256","internalType":"uint256"},{"name":"","type":"address","internalType":"address"}],"outputs":[{"name":"","type":"bool","internalType":"bool"}],"stateMutability":"view"},{"type":"function","name":"deposit","inputs":[],"outputs":[],"stateMutability":"payable"},{"type":"function","name":"emergencyWithdrawAll","inputs":[{"name":"to","type":"address","internalType":"address"}],"outputs":[],"stateMutability":"nonpayable"},{"type":"function","name":"executeTransaction","inputs":[{"name":"txId","type":"uint256","internalType":"uint256"}],"outputs":[],"stateMutability":"nonpayable"},{"type":"function","name":"isOwner","inputs":[{"name":"","type":"address","internalType":"address"}],"outputs":[{"name":"","type":"bool","internalType":"bool"}],"stateMutability":"view"},{"type":"function","name":"merkleRoot","inputs":[],"outputs":[{"name":"","type":"bytes32","internalType":"bytes32"}],"stateMutability":"view"},{"type":"function","name":"owners","inputs":[{"name":"","type":"uint256","internalType":"uint256"}],"outputs":[{"name":"","type":"address","internalType":"address"}],"stateMutability":"view"},{"type":"function","name":"pauseControl","inputs":[],"outputs":[],"stateMutability":"nonpayable"},{"type":"function","name":"paused","inputs":[],"outputs":[{"name":"","type":"bool","internalType":"bool"}],"stateMutability":"view"},{"type":"function","name":"setMerkleRoot","inputs":[{"name":"root","type":"bytes32","internalType":"bytes32"}],"outputs":[],"stateMutability":"nonpayable"},{"type":"function","name":"submitTransaction","inputs":[{"name":"to","type":"address","internalType":"address"},{"name":"value","type":"uint256","internalType":"uint256"},{"name":"data","type":"bytes","internalType":"bytes"}],"outputs":[],"stateMutability":"nonpayable"},{"type":"function","name":"threshold","inputs":[],"outputs":[{"name":"","type":"uint256","internalType":"uint256"}],"stateMutability":"view"},{"type":"function","name":"totalVaultValue","inputs":[],"outputs":[{"name":"","type":"uint256","internalType":"uint256"}],"stateMutability":"view"},{"type":"function","name":"transactions","inputs":[{"name":"","type":"uint256","internalType":"uint256"}],"outputs":[{"name":"to","type":"address","internalType":"address"},{"name":"value","type":"uint256","internalType":"uint256"},{"name":"data","type":"bytes","internalType":"bytes"},{"name":"executed","type":"bool","internalType":"bool"},{"name":"confirmations","type":"uint256","internalType":"uint256"},{"name":"submissionTime","type":"uint256","internalType":"uint256"},{"name":"executionTime","type":"uint256","internalType":"uint256"}],"stateMutability":"view"},{"type":"function","name":"txCount","inputs":[],"outputs":[{"name":"","type":"uint256","internalType":"uint256"}],"stateMutability":"view"},{"type":"function","name":"unpauseControl","inputs":[],"outputs":[],"stateMutability":"nonpayable"},{"type":"function","name":"usedHashes","inputs":[{"name":"","type":"bytes32","internalType":"bytes32"}],"outputs":[{"name":"","type":"bool","internalType":"bool"}],"stateMutability":"view"},{"type":"function","name":"verifySignature","inputs":[{"name":"signer","type":"address","internalType":"address"},{"name":"messageHash","type":"bytes32","internalType":"bytes32"},{"name":"signature","type":"bytes","internalType":"bytes"}],"outputs":[{"name":"","type":"bool","internalType":"bool"}],"stateMutability":"pure"},{"type":"function","name":"withdraw","inputs":[{"name":"amount","type":"uint256","internalType":"uint256"}],"outputs":[],"stateMutability":"nonpayable"},{"type":"event","name":"Claim","inputs":[{"name":"claimant","type":"address","indexed":true,"internalType":"address"},{"name":"amount","type":"uint256","indexed":false,"internalType":"uint256"}],"anonymous":false},{"type":"event","name":"Confirmation","inputs":[{"name":"txId","type":"uint256","indexed":true,"internalType":"uint256"},{"name":"owner","type":"address","indexed":true,"internalType":"address"}],"anonymous":false},{"type":"event","name":"Deposit","inputs":[{"name":"depositor","type":"address","indexed":true,"internalType":"address"},{"name":"amount","type":"uint256","indexed":false,"internalType":"uint256"}],"anonymous":false},{"type":"event","name":"Execution","inputs":[{"name":"txId","type":"uint256","indexed":true,"internalType":"uint256"}],"anonymous":false},{"type":"event","name":"MerkleRootSet","inputs":[{"name":"newRoot","type":"bytes32","indexed":true,"internalType":"bytes32"}],"anonymous":false},{"type":"event","name":"Submission","inputs":[{"name":"txId","type":"uint256","indexed":true,"internalType":"uint256"}],"anonymous":false},{"type":"event","name":"Withdrawal","inputs":[{"name":"withdrawer","type":"address","indexed":true,"internalType":"address"},{"name":"amount","type":"uint256","indexed":false,"internalType":"uint256"}],"anonymous":false},{"type":"error","name":"ECDSAInvalidSignature","inputs":[]},{"type":"error","name":"ECDSAInvalidSignatureLength","inputs":[{"name":"length","type":"uint256","internalType":"uint256"}]},{"type":"error","name":"ECDSAInvalidSignatureS","inputs":[{"name":"s","type":"bytes32","internalType":"bytes32"}]}],"bytecode":{"object":"0x60806040526040516132fe3803806132fe833981810160405281019061002591906103c7565b5f825111610068576040517f08c379a000000000000000000000000000000000000000000000000000000000815260040161005f9061047b565b60405180910390fd5b806002819055505f5f90505b82518110156101ca575f83828151811061009157610090610499565b5b602002602001015190505f73ffffffffffffffffffffffffffffffffffffffff168173ffffffffffffffffffffffffffffffffffffffff1603610109576040517f08c379a000000000000000000000000000000000000000000000000000000000815260040161010090610510565b60405180910390fd5b6001805f8373ffffffffffffffffffffffffffffffffffffffff1673ffffffffffffffffffffffffffffffffffffffff1681526020019081526020015f205f6101000a81548160ff0219169083151502179055505f81908060018154018082558091505060019003905f5260205f20015f9091909190916101000a81548173ffffffffffffffffffffffffffffffffffffffff021916908373ffffffffffffffffffffffffffffffffffffffff160217905550508080600101915050610074565b5034600a81905550505061052e565b5f604051905090565b5f5ffd5b5f5ffd5b5f5ffd5b5f601f19601f8301169050919050565b7f4e487b71000000000000000000000000000000000000000000000000000000005f52604160045260245ffd5b610234826101ee565b810181811067ffffffffffffffff82111715610253576102526101fe565b5b80604052505050565b5f6102656101d9565b9050610271828261022b565b919050565b5f67ffffffffffffffff8211156102905761028f6101fe565b5b602082029050602081019050919050565b5f5ffd5b5f73ffffffffffffffffffffffffffffffffffffffff82169050919050565b5f6102ce826102a5565b9050919050565b6102de816102c4565b81146102e8575f5ffd5b50565b5f815190506102f9816102d5565b92915050565b5f61031161030c84610276565b61025c565b90508083825260208201905060208402830185811115610334576103336102a1565b5b835b8181101561035d578061034988826102eb565b845260208401935050602081019050610336565b5050509392505050565b5f82601f83011261037b5761037a6101ea565b5b815161038b8482602086016102ff565b91505092915050565b5f819050919050565b6103a681610394565b81146103b0575f5ffd5b50565b5f815190506103c18161039d565b92915050565b5f5f604083850312156103dd576103dc6101e2565b5b5f83015167ffffffffffffffff8111156103fa576103f96101e6565b5b61040685828601610367565b9250506020610417858286016103b3565b9150509250929050565b5f82825260208201905092915050565b7f6e6f206f776e65727300000000000000000000000000000000000000000000005f82015250565b5f610465600983610421565b915061047082610431565b602082019050919050565b5f6020820190508181035f83015261049281610459565b9050919050565b7f4e487b71000000000000000000000000000000000000000000000000000000005f52603260045260245ffd5b7f7a65726f206164647265737300000000000000000000000000000000000000005f82015250565b5f6104fa600c83610421565b9150610505826104c6565b602082019050919050565b5f6020820190508181035f830152610527816104ee565b9050919050565b612dc38061053b5f395ff3fe60806040526004361061014e575f3560e01c80635c975abb116100b5578063afbc74b91161006e578063afbc74b91461055a578063c01a8c8414610584578063c6427474146105ac578063c884ef83146105d4578063d0e30db014610610578063ee22610b1461061a5761020e565b80635c975abb146104385780637cb64759146104625780638790c1de1461048a5780639ace38c2146104c6578063a5e505cb14610508578063aef18bf71461051e5761020e565b80633b439351116101075780633b439351146103545780633c5406871461037c57806342cde4e8146103a65780634623c81e146103d05780634e55b378146103fa57806354ab6269146104105761020e565b80630175199814610212578063025e7c271461024e57806327e235e31461028a5780632e1a7d4d146102c65780632eb4a7ab146102ee5780632f54bf6e146103185761020e565b3661020e573460065f3373ffffffffffffffffffffffffffffffffffffffff1673ffffffffffffffffffffffffffffffffffffffff1681526020019081526020015f205f82825461019f9190611c5e565b9250508190555034600a5f8282546101b79190611c5e565b925050819055503373ffffffffffffffffffffffffffffffffffffffff167fe1fffcc4923d04b559f4d29a8bfc6cda04eb5b0d3c460751c2402c5c5cc9109c346040516102049190611ca0565b60405180910390a2005b5f5ffd5b34801561021d575f5ffd5b5061023860048036038101906102339190611e93565b610642565b6040516102459190611f19565b60405180910390f35b348015610259575f5ffd5b50610274600480360381019061026f9190611f5c565b610684565b6040516102819190611f96565b60405180910390f35b348015610295575f5ffd5b506102b060048036038101906102ab9190611faf565b6106be565b6040516102bd9190611ca0565b60405180910390f35b3480156102d1575f5ffd5b506102ec60048036038101906102e79190611f5c565b6106d3565b005b3480156102f9575f5ffd5b50610302610907565b60405161030f9190611fe9565b60405180910390f35b348015610323575f5ffd5b5061033e60048036038101906103399190611faf565b61090d565b60405161034b9190611f19565b60405180910390f35b34801561035f575f5ffd5b5061037a6004803603810190610375919061205f565b61092a565b005b348015610387575f5ffd5b50610390610c2b565b60405161039d9190611ca0565b60405180910390f35b3480156103b1575f5ffd5b506103ba610c31565b6040516103c79190611ca0565b60405180910390f35b3480156103db575f5ffd5b506103e4610c37565b6040516103f19190611ca0565b60405180910390f35b348015610405575f5ffd5b5061040e610c3d565b005b34801561041b575f5ffd5b5061043660048036038101906104319190611faf565b610cc7565b005b348015610443575f5ffd5b5061044c610e5b565b6040516104599190611f19565b60405180910390f35b34801561046d575f5ffd5b50610488600480360381019061048391906120bc565b610e6d565b005b348015610495575f5ffd5b506104b060048036038101906104ab91906120e7565b610f12565b6040516104bd9190611f19565b60405180910390f35b3480156104d1575f5ffd5b506104ec60048036038101906104e79190611f5c565b610f3c565b6040516104ff9796959493929190612185565b60405180910390f35b348015610513575f5ffd5b5061051c61102b565b005b348015610529575f5ffd5b50610544600480360381019061053f91906120bc565b6110b4565b6040516105519190611f19565b60405180910390f35b348015610565575f5ffd5b5061056e6110d1565b60405161057b9190611ca0565b60405180910390f35b34801561058f575f5ffd5b506105aa60048036038101906105a59190611f5c565b6110d7565b005b3480156105b7575f5ffd5b506105d260048036038101906105cd919061224e565b611347565b005b3480156105df575f5ffd5b506105fa60048036038101906105f59190611faf565b6115e3565b6040516106079190611f19565b60405180910390f35b610618611600565b005b348015610625575f5ffd5b50610640600480360381019061063b9190611f5c565b6116bb565b005b5f8373ffffffffffffffffffffffffffffffffffffffff1661066484846118d1565b73ffffffffffffffffffffffffffffffffffffffff161490509392505050565b5f8181548110610692575f80fd5b905f5260205f20015f915054906101000a900473ffffffffffffffffffffffffffffffffffffffff1681565b6006602052805f5260405f205f915090505481565b600b5f9054906101000a900460ff1615610722576040517f08c379a000000000000000000000000000000000000000000000000000000000815260040161071990612319565b60405180910390fd5b8060065f3373ffffffffffffffffffffffffffffffffffffffff1673ffffffffffffffffffffffffffffffffffffffff1681526020019081526020015f205410156107a2576040517f08c379a000000000000000000000000000000000000000000000000000000000815260040161079990612381565b60405180910390fd5b8060065f3373ffffffffffffffffffffffffffffffffffffffff1673ffffffffffffffffffffffffffffffffffffffff1681526020019081526020015f205f8282546107ee919061239f565b9250508190555080600a5f828254610806919061239f565b925050819055505f3373ffffffffffffffffffffffffffffffffffffffff1682604051610832906123ff565b5f6040518083038185875af1925050503d805f811461086c576040519150601f19603f3d011682016040523d82523d5f602084013e610871565b606091505b50509050806108b5576040517f08c379a00000000000000000000000000000000000000000000000000000000081526004016108ac9061245d565b60405180910390fd5b3373ffffffffffffffffffffffffffffffffffffffff167f7fcf532c15f0a6db0bd6d0e038bea71d30d808c7d98cb3bf7268a95bf5081b65836040516108fb9190611ca0565b60405180910390a25050565b60075481565b6001602052805f5260405f205f915054906101000a900460ff1681565b600b5f9054906101000a900460ff1615610979576040517f08c379a000000000000000000000000000000000000000000000000000000000815260040161097090612319565b60405180910390fd5b5f338260405160200161098d9291906124e0565b6040516020818303038152906040528051906020012090505f6109f08585808060200260200160405190810160405280939291908181526020018383602002808284375f81840152601f19601f82011690508083019250505050505050836118fb565b90506007548114610a36576040517f08c379a0000000000000000000000000000000000000000000000000000000008152600401610a2d90612555565b60405180910390fd5b60085f3373ffffffffffffffffffffffffffffffffffffffff1673ffffffffffffffffffffffffffffffffffffffff1681526020019081526020015f205f9054906101000a900460ff1615610ac0576040517f08c379a0000000000000000000000000000000000000000000000000000000008152600401610ab7906125bd565b60405180910390fd5b600160085f3373ffffffffffffffffffffffffffffffffffffffff1673ffffffffffffffffffffffffffffffffffffffff1681526020019081526020015f205f6101000a81548160ff02191690831515021790555082600a5f828254610b26919061239f565b925050819055505f3373ffffffffffffffffffffffffffffffffffffffff1684604051610b52906123ff565b5f6040518083038185875af1925050503d805f8114610b8c576040519150601f19603f3d011682016040523d82523d5f602084013e610b91565b606091505b5050905080610bd5576040517f08c379a0000000000000000000000000000000000000000000000000000000008152600401610bcc9061245d565b60405180910390fd5b3373ffffffffffffffffffffffffffffffffffffffff167f47cee97cb7acd717b3c0aa1435d004cd5b3c8c57d70dbceb4e4458bbd60e39d485604051610c1b9190611ca0565b60405180910390a2505050505050565b60055481565b60025481565b610e1081565b3073ffffffffffffffffffffffffffffffffffffffff163373ffffffffffffffffffffffffffffffffffffffff1614610cab576040517f08c379a0000000000000000000000000000000000000000000000000000000008152600401610ca290612625565b60405180910390fd5b6001600b5f6101000a81548160ff021916908315150217905550565b3073ffffffffffffffffffffffffffffffffffffffff163373ffffffffffffffffffffffffffffffffffffffff1614610d35576040517f08c379a0000000000000000000000000000000000000000000000000000000008152600401610d2c90612625565b60405180910390fd5b5f73ffffffffffffffffffffffffffffffffffffffff168173ffffffffffffffffffffffffffffffffffffffff1603610da3576040517f08c379a0000000000000000000000000000000000000000000000000000000008152600401610d9a9061268d565b60405180910390fd5b5f4790505f600a819055505f8273ffffffffffffffffffffffffffffffffffffffff1682604051610dd3906123ff565b5f6040518083038185875af1925050503d805f8114610e0d576040519150601f19603f3d011682016040523d82523d5f602084013e610e12565b606091505b5050905080610e56576040517f08c379a0000000000000000000000000000000000000000000000000000000008152600401610e4d9061245d565b60405180910390fd5b505050565b600b5f9054906101000a900460ff1681565b3073ffffffffffffffffffffffffffffffffffffffff163373ffffffffffffffffffffffffffffffffffffffff1614610edb576040517f08c379a0000000000000000000000000000000000000000000000000000000008152600401610ed290612625565b60405180910390fd5b80600781905550807f42cbc405e4dbf1b691e85b9a34b08ecfcf7a9ad9078bf4d645ccfa1fac11c10b60405160405180910390a250565b6003602052815f5260405f20602052805f5260405f205f915091509054906101000a900460ff1681565b6004602052805f5260405f205f91509050805f015f9054906101000a900473ffffffffffffffffffffffffffffffffffffffff1690806001015490806002018054610f86906126d8565b80601f0160208091040260200160405190810160405280929190818152602001828054610fb2906126d8565b8015610ffd5780601f10610fd457610100808354040283529160200191610ffd565b820191905f5260205f20905b815481529060010190602001808311610fe057829003601f168201915b505050505090806003015f9054906101000a900460ff16908060040154908060050154908060060154905087565b3073ffffffffffffffffffffffffffffffffffffffff163373ffffffffffffffffffffffffffffffffffffffff1614611099576040517f08c379a000000000000000000000000000000000000000000000000000000000815260040161109090612625565b60405180910390fd5b5f600b5f6101000a81548160ff021916908315150217905550565b6009602052805f5260405f205f915054906101000a900460ff1681565b600a5481565b60015f3373ffffffffffffffffffffffffffffffffffffffff1673ffffffffffffffffffffffffffffffffffffffff1681526020019081526020015f205f9054906101000a900460ff16611160576040517f08c379a000000000000000000000000000000000000000000000000000000000815260040161115790612752565b60405180910390fd5b5f60045f8381526020019081526020015f209050806003015f9054906101000a900460ff16156111c5576040517f08c379a00000000000000000000000000000000000000000000000000000000081526004016111bc906127ba565b60405180910390fd5b60035f8381526020019081526020015f205f3373ffffffffffffffffffffffffffffffffffffffff1673ffffffffffffffffffffffffffffffffffffffff1681526020019081526020015f205f9054906101000a900460ff161561125e576040517f08c379a000000000000000000000000000000000000000000000000000000000815260040161125590612822565b60405180910390fd5b600160035f8481526020019081526020015f205f3373ffffffffffffffffffffffffffffffffffffffff1673ffffffffffffffffffffffffffffffffffffffff1681526020019081526020015f205f6101000a81548160ff021916908315150217905550806004015f8154809291906112d690612840565b91905055506002548160040154036112ff57610e10426112f69190611c5e565b81600601819055505b3373ffffffffffffffffffffffffffffffffffffffff16827f1f7db319f45151674bbce08ad4e1093bca1941bc7ef2f91ccafd6519406f010160405160405180910390a35050565b60015f3373ffffffffffffffffffffffffffffffffffffffff1673ffffffffffffffffffffffffffffffffffffffff1681526020019081526020015f205f9054906101000a900460ff166113d0576040517f08c379a00000000000000000000000000000000000000000000000000000000081526004016113c790612752565b60405180910390fd5b5f60055f8154809291906113e390612840565b9190505590506040518060e001604052808673ffffffffffffffffffffffffffffffffffffffff16815260200185815260200184848080601f0160208091040260200160405190810160405280939291908181526020018383808284375f81840152601f19601f8201169050808301925050505050505081526020015f1515815260200160018152602001428152602001600160025414611484575f611493565b610e10426114929190611c5e565b5b81525060045f8381526020019081526020015f205f820151815f015f6101000a81548173ffffffffffffffffffffffffffffffffffffffff021916908373ffffffffffffffffffffffffffffffffffffffff16021790555060208201518160010155604082015181600201908161150a9190612a38565b506060820151816003015f6101000a81548160ff0219169083151502179055506080820151816004015560a0820151816005015560c08201518160060155905050600160035f8381526020019081526020015f205f3373ffffffffffffffffffffffffffffffffffffffff1673ffffffffffffffffffffffffffffffffffffffff1681526020019081526020015f205f6101000a81548160ff021916908315150217905550807fc0ba8fe4b176c1714197d43b9cc6bcf797a4a7461c5fe8d0ef6e184ae7601e5160405160405180910390a25050505050565b6008602052805f5260405f205f915054906101000a900460ff1681565b3460065f3373ffffffffffffffffffffffffffffffffffffffff1673ffffffffffffffffffffffffffffffffffffffff1681526020019081526020015f205f82825461164c9190611c5e565b9250508190555034600a5f8282546116649190611c5e565b925050819055503373ffffffffffffffffffffffffffffffffffffffff167fe1fffcc4923d04b559f4d29a8bfc6cda04eb5b0d3c460751c2402c5c5cc9109c346040516116b19190611ca0565b60405180910390a2565b5f60045f8381526020019081526020015f20905060025481600401541015611718576040517f08c379a000000000000000000000000000000000000000000000000000000000815260040161170f90612b51565b60405180910390fd5b806003015f9054906101000a900460ff1615611769576040517f08c379a0000000000000000000000000000000000000000000000000000000008152600401611760906127ba565b60405180910390fd5b80600601544210156117b0576040517f08c379a00000000000000000000000000000000000000000000000000000000081526004016117a790612bb9565b60405180910390fd5b6001816003015f6101000a81548160ff0219169083151502179055505f815f015f9054906101000a900473ffffffffffffffffffffffffffffffffffffffff1673ffffffffffffffffffffffffffffffffffffffff1682600101548360020160405161181c9190612c57565b5f6040518083038185875af1925050503d805f8114611856576040519150601f19603f3d011682016040523d82523d5f602084013e61185b565b606091505b505090508061189f576040517f08c379a000000000000000000000000000000000000000000000000000000000815260040161189690612cb7565b60405180910390fd5b827f33e13ecb54c3076d8e8bb8c2881800a4d972b792045ffae98fdf46df365fed7560405160405180910390a2505050565b5f5f5f5f6118df868661194c565b9250925092506118ef82826119a1565b82935050505092915050565b5f5f8290505f5f90505b8451811015611941576119328286838151811061192557611924612cd5565b5b6020026020010151611b03565b91508080600101915050611905565b508091505092915050565b5f5f5f604184510361198c575f5f5f602087015192506040870151915060608701515f1a905061197e88828585611b2d565b95509550955050505061199a565b5f600285515f1b9250925092505b9250925092565b5f60038111156119b4576119b3612d02565b5b8260038111156119c7576119c6612d02565b5b0315611aff57600160038111156119e1576119e0612d02565b5b8260038111156119f4576119f3612d02565b5b03611a2b576040517ff645eedf00000000000000000000000000000000000000000000000000000000815260040160405180910390fd5b60026003811115611a3f57611a3e612d02565b5b826003811115611a5257611a51612d02565b5b03611a9657805f1c6040517ffce698f7000000000000000000000000000000000000000000000000000000008152600401611a8d9190611ca0565b60405180910390fd5b600380811115611aa957611aa8612d02565b5b826003811115611abc57611abb612d02565b5b03611afe57806040517fd78bce0c000000000000000000000000000000000000000000000000000000008152600401611af59190611fe9565b60405180910390fd5b5b5050565b5f818310611b1a57611b158284611c14565b611b25565b611b248383611c14565b5b905092915050565b5f5f5f7f7fffffffffffffffffffffffffffffff5d576e7357a4501ddfe92f46681b20a0845f1c1115611b69575f600385925092509250611c0a565b5f6001888888886040515f8152602001604052604051611b8c9493929190612d4a565b6020604051602081039080840390855afa158015611bac573d5f5f3e3d5ffd5b5050506020604051035190505f73ffffffffffffffffffffffffffffffffffffffff168173ffffffffffffffffffffffffffffffffffffffff1603611bfd575f60015f5f1b93509350935050611c0a565b805f5f5f1b935093509350505b9450945094915050565b5f825f528160205260405f20905092915050565b5f819050919050565b7f4e487b71000000000000000000000000000000000000000000000000000000005f52601160045260245ffd5b5f611c6882611c28565b9150611c7383611c28565b9250828201905080821115611c8b57611c8a611c31565b5b92915050565b611c9a81611c28565b82525050565b5f602082019050611cb35f830184611c91565b92915050565b5f604051905090565b5f5ffd5b5f5ffd5b5f73ffffffffffffffffffffffffffffffffffffffff82169050919050565b5f611cf382611cca565b9050919050565b611d0381611ce9565b8114611d0d575f5ffd5b50565b5f81359050611d1e81611cfa565b92915050565b5f819050919050565b611d3681611d24565b8114611d40575f5ffd5b50565b5f81359050611d5181611d2d565b92915050565b5f5ffd5b5f5ffd5b5f601f19601f8301169050919050565b7f4e487b71000000000000000000000000000000000000000000000000000000005f52604160045260245ffd5b611da582611d5f565b810181811067ffffffffffffffff82111715611dc457611dc3611d6f565b5b80604052505050565b5f611dd6611cb9565b9050611de28282611d9c565b919050565b5f67ffffffffffffffff821115611e0157611e00611d6f565b5b611e0a82611d5f565b9050602081019050919050565b828183375f83830152505050565b5f611e37611e3284611de7565b611dcd565b905082815260208101848484011115611e5357611e52611d5b565b5b611e5e848285611e17565b509392505050565b5f82601f830112611e7a57611e79611d57565b5b8135611e8a848260208601611e25565b91505092915050565b5f5f5f60608486031215611eaa57611ea9611cc2565b5b5f611eb786828701611d10565b9350506020611ec886828701611d43565b925050604084013567ffffffffffffffff811115611ee957611ee8611cc6565b5b611ef586828701611e66565b9150509250925092565b5f8115159050919050565b611f1381611eff565b82525050565b5f602082019050611f2c5f830184611f0a565b92915050565b611f3b81611c28565b8114611f45575f5ffd5b50565b5f81359050611f5681611f32565b92915050565b5f60208284031215611f7157611f70611cc2565b5b5f611f7e84828501611f48565b91505092915050565b611f9081611ce9565b82525050565b5f602082019050611fa95f830184611f87565b92915050565b5f60208284031215611fc457611fc3611cc2565b5b5f611fd184828501611d10565b91505092915050565b611fe381611d24565b82525050565b5f602082019050611ffc5f830184611fda565b92915050565b5f5ffd5b5f5ffd5b5f5f83601f84011261201f5761201e611d57565b5b8235905067ffffffffffffffff81111561203c5761203b612002565b5b60208301915083602082028301111561205857612057612006565b5b9250929050565b5f5f5f6040848603121561207657612075611cc2565b5b5f84013567ffffffffffffffff81111561209357612092611cc6565b5b61209f8682870161200a565b935093505060206120b286828701611f48565b9150509250925092565b5f602082840312156120d1576120d0611cc2565b5b5f6120de84828501611d43565b91505092915050565b5f5f604083850312156120fd576120fc611cc2565b5b5f61210a85828601611f48565b925050602061211b85828601611d10565b9150509250929050565b5f81519050919050565b5f82825260208201905092915050565b8281835e5f83830152505050565b5f61215782612125565b612161818561212f565b935061217181856020860161213f565b61217a81611d5f565b840191505092915050565b5f60e0820190506121985f83018a611f87565b6121a56020830189611c91565b81810360408301526121b7818861214d565b90506121c66060830187611f0a565b6121d36080830186611c91565b6121e060a0830185611c91565b6121ed60c0830184611c91565b98975050505050505050565b5f5f83601f84011261220e5761220d611d57565b5b8235905067ffffffffffffffff81111561222b5761222a612002565b5b60208301915083600182028301111561224757612246612006565b5b9250929050565b5f5f5f5f6060858703121561226657612265611cc2565b5b5f61227387828801611d10565b945050602061228487828801611f48565b935050604085013567ffffffffffffffff8111156122a5576122a4611cc6565b5b6122b1878288016121f9565b925092505092959194509250565b5f82825260208201905092915050565b7f70617573656400000000000000000000000000000000000000000000000000005f82015250565b5f6123036006836122bf565b915061230e826122cf565b602082019050919050565b5f6020820190508181035f830152612330816122f7565b9050919050565b7f696e73756666696369656e742062616c616e63650000000000000000000000005f82015250565b5f61236b6014836122bf565b915061237682612337565b602082019050919050565b5f6020820190508181035f8301526123988161235f565b9050919050565b5f6123a982611c28565b91506123b483611c28565b92508282039050818111156123cc576123cb611c31565b5b92915050565b5f81905092915050565b50565b5f6123ea5f836123d2565b91506123f5826123dc565b5f82019050919050565b5f612409826123df565b9150819050919050565b7f7472616e73666572206661696c656400000000000000000000000000000000005f82015250565b5f612447600f836122bf565b915061245282612413565b602082019050919050565b5f6020820190508181035f8301526124748161243b565b9050919050565b5f8160601b9050919050565b5f6124918261247b565b9050919050565b5f6124a282612487565b9050919050565b6124ba6124b582611ce9565b612498565b82525050565b5f819050919050565b6124da6124d582611c28565b6124c0565b82525050565b5f6124eb82856124a9565b6014820191506124fb82846124c9565b6020820191508190509392505050565b7f696e76616c69642070726f6f66000000000000000000000000000000000000005f82015250565b5f61253f600d836122bf565b915061254a8261250b565b602082019050919050565b5f6020820190508181035f83015261256c81612533565b9050919050565b7f616c726561647920636c61696d656400000000000000000000000000000000005f82015250565b5f6125a7600f836122bf565b91506125b282612573565b602082019050919050565b5f6020820190508181035f8301526125d48161259b565b9050919050565b7f4f6e6c79206d756c7469736967000000000000000000000000000000000000005f82015250565b5f61260f600d836122bf565b915061261a826125db565b602082019050919050565b5f6020820190508181035f83015261263c81612603565b9050919050565b7f7a65726f206164647265737300000000000000000000000000000000000000005f82015250565b5f612677600c836122bf565b915061268282612643565b602082019050919050565b5f6020820190508181035f8301526126a48161266b565b9050919050565b7f4e487b71000000000000000000000000000000000000000000000000000000005f52602260045260245ffd5b5f60028204905060018216806126ef57607f821691505b602082108103612702576127016126ab565b5b50919050565b7f6e6f74206f776e657200000000000000000000000000000000000000000000005f82015250565b5f61273c6009836122bf565b915061274782612708565b602082019050919050565b5f6020820190508181035f83015261276981612730565b9050919050565b7f616c7265616479206578656375746564000000000000000000000000000000005f82015250565b5f6127a46010836122bf565b91506127af82612770565b602082019050919050565b5f6020820190508181035f8301526127d181612798565b9050919050565b7f616c726561647920636f6e6669726d65640000000000000000000000000000005f82015250565b5f61280c6011836122bf565b9150612817826127d8565b602082019050919050565b5f6020820190508181035f83015261283981612800565b9050919050565b5f61284a82611c28565b91507fffffffffffffffffffffffffffffffffffffffffffffffffffffffffffffffff820361287c5761287b611c31565b5b600182019050919050565b5f819050815f5260205f209050919050565b5f6020601f8301049050919050565b5f82821b905092915050565b5f600883026128e37fffffffffffffffffffffffffffffffffffffffffffffffffffffffffffffffff826128a8565b6128ed86836128a8565b95508019841693508086168417925050509392505050565b5f819050919050565b5f61292861292361291e84611c28565b612905565b611c28565b9050919050565b5f819050919050565b6129418361290e565b61295561294d8261292f565b8484546128b4565b825550505050565b5f5f905090565b61296c61295d565b612977818484612938565b505050565b5f5b8281101561299d576129925f828401612964565b60018101905061297e565b505050565b601f8211156129f057828211156129ef576129bc81612887565b6129c583612899565b6129ce85612899565b60208610156129db575f90505b8083016129ea8284038261297c565b505050505b5b505050565b5f82821c905092915050565b5f612a105f19846008026129f5565b1980831691505092915050565b5f612a288383612a01565b9150826002028217905092915050565b612a4182612125565b67ffffffffffffffff811115612a5a57612a59611d6f565b5b612a6482546126d8565b612a6f8282856129a2565b5f60209050601f831160018114612aa0575f8415612a8e578287015190505b612a988582612a1d565b865550612aff565b601f198416612aae86612887565b5f5b82811015612ad557848901518255600182019150602085019450602081019050612ab0565b86831015612af25784890151612aee601f891682612a01565b8355505b6001600288020188555050505b505050505050565b7f7468726573686f6c64206e6f74206d65740000000000000000000000000000005f82015250565b5f612b3b6011836122bf565b9150612b4682612b07565b602082019050919050565b5f6020820190508181035f830152612b6881612b2f565b9050919050565b7f74696d656c6f636b206e6f7420657870697265640000000000000000000000005f82015250565b5f612ba36014836122bf565b9150612bae82612b6f565b602082019050919050565b5f6020820190508181035f830152612bd081612b97565b9050919050565b5f8154612be3816126d8565b612bed81866123d2565b9450600182165f8114612c075760018114612c1c57612c4e565b60ff1983168652811515820286019350612c4e565b612c2585612887565b5f5b83811015612c4657815481890152600182019150602081019050612c27565b838801955050505b50505092915050565b5f612c628284612bd7565b915081905092915050565b7f7478206661696c656400000000000000000000000000000000000000000000005f82015250565b5f612ca16009836122bf565b9150612cac82612c6d565b602082019050919050565b5f6020820190508181035f830152612cce81612c95565b9050919050565b7f4e487b71000000000000000000000000000000000000000000000000000000005f52603260045260245ffd5b7f4e487b71000000000000000000000000000000000000000000000000000000005f52602160045260245ffd5b5f60ff82169050919050565b612d4481612d2f565b82525050565b5f608082019050612d5d5f830187611fda565b612d6a6020830186612d3b565b612d776040830185611fda565b612d846060830184611fda565b9594505050505056fea264697066735822122014b651f5d444362e9b687c1e1992e097b4349280d5858f7bd1afb5abb672b9aa64736f6c63430008210033","linkReferences":{}},"methodIdentifiers":{"TIMELOCK_DURATION()":"4623c81e","balances(address)":"27e235e3","claim(bytes32[],uint256)":"3b439351","claimed(address)":"c884ef83","confirmTransaction(uint256)":"c01a8c84","confirmed(uint256,address)":"8790c1de","deposit()":"d0e30db0","emergencyWithdrawAll(address)":"54ab6269","executeTransaction(uint256)":"ee22610b","isOwner(address)":"2f54bf6e","merkleRoot()":"2eb4a7ab","owners(uint256)":"025e7c27","pauseControl()":"4e55b378","paused()":"5c975abb","setMerkleRoot(bytes32)":"7cb64759","submitTransaction(address,uint256,bytes)":"c6427474","threshold()":"42cde4e8","totalVaultValue()":"afbc74b9","transactions(uint256)":"9ace38c2","txCount()":"3c540687","unpauseControl()":"a5e505cb","usedHashes(bytes32)":"aef18bf7","verifySignature(address,bytes32,bytes)":"01751998","withdraw(uint256)":"2e1a7d4d"},"id":24}