{"abi":[{"type":"constructor","inputs":[{"name":"_owners","type":"address[]","internalType":"address[]"},{"name":"_threshold","type":"uint256","internalType":"uint256"}],"stateMutability":"payable"},{"type":"receive","stateMutability":"payable"},{"type":"function","name":"TIMELOCK_DURATION","inputs":[],"outputs":[{"name":"","type":"uint256","internalType":"uint256"}],"stateMutability":"view"},{"type":"function","name":"balances","inputs":[{"name":"","type":"address","internalType":"address"}],"outputs":[{"name":"","type":"uint256","internalType":"uint256"}],"stateMutability":"view"},{"type":"function","name":"claim","inputs":[{"name":"proof","type":"bytes32[]","internalType":"bytes32[]"},{"name":"amount","type":"uint256","internalType":"uint256"}],"outputs":[],"stateMutability":"nonpayable"},{"type":"function","name":"claimed","inputs":[{"name":"","type":"address","internalType":"address"}],"outputs":[{"name":"","type":"bool","internalType":"bool"}],"stateMutability":"view"},{"type":"function","name":"confirmTransaction","inputs":[{"name":"txId","type":"uint256","internalType":"uint256"}],"outputs":[],"stateMutability":"nonpayable"},{"type":"function","name":"confirmed","inputs":[{"name":"","type":"uint256","internalType":"uint256"},{"name":"","type":"address","internalType":"address"}],"outputs":[{"name":"","type":"bool","internalType":"bool"}],"stateMutability":"view"},{"type":"function","name":"deposit","inputs":[],"outputs":[],"stateMutability":"payable"},{"type":"function","name":"emergencyWithdrawAll","inputs":[{"name":"to","type":"address","internalType":"address"}],"outputs":[],"stateMutability":"nonpayable"},{"type":"function","name":"executeTransaction","inputs":[{"name":"txId","type":"uint256","internalType":"uint256"}],"outputs":[],"stateMutability":"nonpayable"},{"type":"function","name":"isOwner","inputs":[{"name":"","type":"address","internalType":"address"}],"outputs":[{"name":"","type":"bool","internalType":"bool"}],"stateMutability":"view"},{"type":"function","name":"merkleRoot","inputs":[],"outputs":[{"name":"","type":"bytes32","internalType":"bytes32"}],"stateMutability":"view"},{"type":"function","name":"owners","inputs":[{"name":"","type":"uint256","internalType":"uint256"}],"outputs":[{"name":"","type":"address","internalType":"address"}],"stateMutability":"view"},{"type":"function","name":"pause","inputs":[],"outputs":[],"stateMutability":"nonpayable"},{"type":"function","name":"paused","inputs":[],"outputs":[{"name":"","type":"bool","internalType":"bool"}],"stateMutability":"view"},{"type":"function","name":"setMerkleRoot","inputs":[{"name":"root","type":"bytes32","internalType":"bytes32"}],"outputs":[],"stateMutability":"nonpayable"},{"type":"function","name":"submitTransaction","inputs":[{"name":"to","type":"address","internalType":"address"},{"name":"value","type":"uint256","internalType":"uint256"},{"name":"data","type":"bytes","internalType":"bytes"}],"outputs":[],"stateMutability":"nonpayable"},{"type":"function","name":"threshold","inputs":[],"outputs":[{"name":"","type":"uint256","internalType":"uint256"}],"stateMutability":"view"},{"type":"function","name":"totalVaultValue","inputs":[],"outputs":[{"name":"","type":"uint256","internalType":"uint256"}],"stateMutability":"view"},{"type":"function","name":"transactions","inputs":[{"name":"","type":"uint256","internalType":"uint256"}],"outputs":[{"name":"to","type":"address","internalType":"address"},{"name":"value","type":"uint256","internalType":"uint256"},{"name":"data","type":"bytes","internalType":"bytes"},{"name":"executed","type":"bool","internalType":"bool"},{"name":"confirmations","type":"uint256","internalType":"uint256"},{"name":"submissionTime","type":"uint256","internalType":"uint256"},{"name":"executionTime","type":"uint256","internalType":"uint256"}],"stateMutability":"view"},{"type":"function","name":"txCount","inputs":[],"outputs":[{"name":"","type":"uint256","internalType":"uint256"}],"stateMutability":"view"},{"type":"function","name":"unpause","inputs":[],"outputs":[],"stateMutability":"nonpayable"},{"type":"function","name":"usedHashes","inputs":[{"name":"","type":"bytes32","internalType":"bytes32"}],"outputs":[{"name":"","type":"bool","internalType":"bool"}],"stateMutability":"view"},{"type":"function","name":"verifySignature","inputs":[{"name":"signer","type":"address","internalType":"address"},{"name":"messageHash","type":"bytes32","internalType":"bytes32"},{"name":"signature","type":"bytes","internalType":"bytes"}],"outputs":[{"name":"","type":"bool","internalType":"bool"}],"stateMutability":"pure"},{"type":"function","name":"withdraw","inputs":[{"name":"amount","type":"uint256","internalType":"uint256"}],"outputs":[],"stateMutability":"nonpayable"},{"type":"event","name":"Claim","inputs":[{"name":"claimant","type":"address","indexed":true,"internalType":"address"},{"name":"amount","type":"uint256","indexed":false,"internalType":"uint256"}],"anonymous":false},{"type":"event","name":"Confirmation","inputs":[{"name":"txId","type":"uint256","indexed":true,"internalType":"uint256"},{"name":"owner","type":"address","indexed":true,"internalType":"address"}],"anonymous":false},{"type":"event","name":"Deposit","inputs":[{"name":"depositor","type":"address","indexed":true,"internalType":"address"},{"name":"amount","type":"uint256","indexed":false,"internalType":"uint256"}],"anonymous":false},{"type":"event","name":"Execution","inputs":[{"name":"txId","type":"uint256","indexed":true,"internalType":"uint256"}],"anonymous":false},{"type":"event","name":"MerkleRootSet","inputs":[{"name":"newRoot","type":"bytes32","indexed":true,"internalType":"bytes32"}],"anonymous":false},{"type":"event","name":"Submission","inputs":[{"name":"txId","type":"uint256","indexed":true,"internalType":"uint256"}],"anonymous":false},{"type":"event","name":"Withdrawal","inputs":[{"name":"withdrawer","type":"address","indexed":true,"internalType":"address"},{"name":"amount","type":"uint256","indexed":false,"internalType":"uint256"}],"anonymous":false},{"type":"error","name":"ECDSAInvalidSignature","inputs":[]},{"type":"error","name":"ECDSAInvalidSignatureLength","inputs":[{"name":"length","type":"uint256","internalType":"uint256"}]},{"type":"error","name":"ECDSAInvalidSignatureS","inputs":[{"name":"s","type":"bytes32","internalType":"bytes32"}]}],"bytecode":{"object":"0x608060405260405161339c38038061339c833981810160405281019061002591906103c7565b5f825111610068576040517f08c379a000000000000000000000000000000000000000000000000000000000815260040161005f9061047b565b60405180910390fd5b806002819055505f5f90505b82518110156101ca575f83828151811061009157610090610499565b5b602002602001015190505f73ffffffffffffffffffffffffffffffffffffffff168173ffffffffffffffffffffffffffffffffffffffff1603610109576040517f08c379a000000000000000000000000000000000000000000000000000000000815260040161010090610510565b60405180910390fd5b6001805f8373ffffffffffffffffffffffffffffffffffffffff1673ffffffffffffffffffffffffffffffffffffffff1681526020019081526020015f205f6101000a81548160ff0219169083151502179055505f81908060018154018082558091505060019003905f5260205f20015f9091909190916101000a81548173ffffffffffffffffffffffffffffffffffffffff021916908373ffffffffffffffffffffffffffffffffffffffff160217905550508080600101915050610074565b5034600a81905550505061052e565b5f604051905090565b5f5ffd5b5f5ffd5b5f5ffd5b5f601f19601f8301169050919050565b7f4e487b71000000000000000000000000000000000000000000000000000000005f52604160045260245ffd5b610234826101ee565b810181811067ffffffffffffffff82111715610253576102526101fe565b5b80604052505050565b5f6102656101d9565b9050610271828261022b565b919050565b5f67ffffffffffffffff8211156102905761028f6101fe565b5b602082029050602081019050919050565b5f5ffd5b5f73ffffffffffffffffffffffffffffffffffffffff82169050919050565b5f6102ce826102a5565b9050919050565b6102de816102c4565b81146102e8575f5ffd5b50565b5f815190506102f9816102d5565b92915050565b5f61031161030c84610276565b61025c565b90508083825260208201905060208402830185811115610334576103336102a1565b5b835b8181101561035d578061034988826102eb565b845260208401935050602081019050610336565b5050509392505050565b5f82601f83011261037b5761037a6101ea565b5b815161038b8482602086016102ff565b91505092915050565b5f819050919050565b6103a681610394565b81146103b0575f5ffd5b50565b5f815190506103c18161039d565b92915050565b5f5f604083850312156103dd576103dc6101e2565b5b5f83015167ffffffffffffffff8111156103fa576103f96101e6565b5b61040685828601610367565b9250506020610417858286016103b3565b9150509250929050565b5f82825260208201905092915050565b7f6e6f206f776e65727300000000000000000000000000000000000000000000005f82015250565b5f610465600983610421565b915061047082610431565b602082019050919050565b5f6020820190508181035f83015261049281610459565b9050919050565b7f4e487b71000000000000000000000000000000000000000000000000000000005f52603260045260245ffd5b7f7a65726f206164647265737300000000000000000000000000000000000000005f82015250565b5f6104fa600c83610421565b9150610505826104c6565b602082019050919050565b5f6020820190508181035f830152610527816104ee565b9050919050565b612e618061053b5f395ff3fe60806040526004361061014e575f3560e01c80635c975abb116100b5578063afbc74b91161006e578063afbc74b91461055a578063c01a8c8414610584578063c6427474146105ac578063c884ef83146105d4578063d0e30db014610610578063ee22610b1461061a5761020e565b80635c975abb146104385780637cb64759146104625780638456cb591461048a5780638790c1de146104a05780639ace38c2146104dc578063aef18bf71461051e5761020e565b80633b439351116101075780633b439351146103545780633c5406871461037c5780633f4ba83a146103a657806342cde4e8146103bc5780634623c81e146103e657806354ab6269146104105761020e565b80630175199814610212578063025e7c271461024e57806327e235e31461028a5780632e1a7d4d146102c65780632eb4a7ab146102ee5780632f54bf6e146103185761020e565b3661020e573460065f3373ffffffffffffffffffffffffffffffffffffffff1673ffffffffffffffffffffffffffffffffffffffff1681526020019081526020015f205f82825461019f9190611cfc565b9250508190555034600a5f8282546101b79190611cfc565b925050819055503373ffffffffffffffffffffffffffffffffffffffff167fe1fffcc4923d04b559f4d29a8bfc6cda04eb5b0d3c460751c2402c5c5cc9109c346040516102049190611d3e565b60405180910390a2005b5f5ffd5b34801561021d575f5ffd5b5061023860048036038101906102339190611f31565b610642565b6040516102459190611fb7565b60405180910390f35b348015610259575f5ffd5b50610274600480360381019061026f9190611ffa565b610684565b6040516102819190612034565b60405180910390f35b348015610295575f5ffd5b506102b060048036038101906102ab919061204d565b6106be565b6040516102bd9190611d3e565b60405180910390f35b3480156102d1575f5ffd5b506102ec60048036038101906102e79190611ffa565b6106d3565b005b3480156102f9575f5ffd5b50610302610907565b60405161030f9190612087565b60405180910390f35b348015610323575f5ffd5b5061033e6004803603810190610339919061204d565b61090d565b60405161034b9190611fb7565b60405180910390f35b34801561035f575f5ffd5b5061037a600480360381019061037591906120fd565b61092a565b005b348015610387575f5ffd5b50610390610c2b565b60405161039d9190611d3e565b60405180910390f35b3480156103b1575f5ffd5b506103ba610c31565b005b3480156103c7575f5ffd5b506103d0610cba565b6040516103dd9190611d3e565b60405180910390f35b3480156103f1575f5ffd5b506103fa610cc0565b6040516104079190611d3e565b60405180910390f35b34801561041b575f5ffd5b506104366004803603810190610431919061204d565b610cc6565b005b348015610443575f5ffd5b5061044c610e5a565b6040516104599190611fb7565b60405180910390f35b34801561046d575f5ffd5b506104886004803603810190610483919061215a565b610e6c565b005b348015610495575f5ffd5b5061049e610f11565b005b3480156104ab575f5ffd5b506104c660048036038101906104c19190612185565b610f9b565b6040516104d39190611fb7565b60405180910390f35b3480156104e7575f5ffd5b5061050260048036038101906104fd9190611ffa565b610fc5565b6040516105159796959493929190612223565b60405180910390f35b348015610529575f5ffd5b50610544600480360381019061053f919061215a565b6110b4565b6040516105519190611fb7565b60405180910390f35b348015610565575f5ffd5b5061056e6110d1565b60405161057b9190611d3e565b60405180910390f35b34801561058f575f5ffd5b506105aa60048036038101906105a59190611ffa565b6110d7565b005b3480156105b7575f5ffd5b506105d260048036038101906105cd91906122ec565b611396565b005b3480156105df575f5ffd5b506105fa60048036038101906105f5919061204d565b611681565b6040516106079190611fb7565b60405180910390f35b61061861169e565b005b348015610625575f5ffd5b50610640600480360381019061063b9190611ffa565b611759565b005b5f8373ffffffffffffffffffffffffffffffffffffffff16610664848461196f565b73ffffffffffffffffffffffffffffffffffffffff161490509392505050565b5f8181548110610692575f80fd5b905f5260205f20015f915054906101000a900473ffffffffffffffffffffffffffffffffffffffff1681565b6006602052805f5260405f205f915090505481565b600b5f9054906101000a900460ff1615610722576040517f08c379a0000000000000000000000000000000000000000000000000000000008152600401610719906123b7565b60405180910390fd5b8060065f3373ffffffffffffffffffffffffffffffffffffffff1673ffffffffffffffffffffffffffffffffffffffff1681526020019081526020015f205410156107a2576040517f08c379a00000000000000000000000000000000000000000000000000000000081526004016107999061241f565b60405180910390fd5b8060065f3373ffffffffffffffffffffffffffffffffffffffff1673ffffffffffffffffffffffffffffffffffffffff1681526020019081526020015f205f8282546107ee919061243d565b9250508190555080600a5f828254610806919061243d565b925050819055505f3373ffffffffffffffffffffffffffffffffffffffff16826040516108329061249d565b5f6040518083038185875af1925050503d805f811461086c576040519150601f19603f3d011682016040523d82523d5f602084013e610871565b606091505b50509050806108b5576040517f08c379a00000000000000000000000000000000000000000000000000000000081526004016108ac906124fb565b60405180910390fd5b3373ffffffffffffffffffffffffffffffffffffffff167f7fcf532c15f0a6db0bd6d0e038bea71d30d808c7d98cb3bf7268a95bf5081b65836040516108fb9190611d3e565b60405180910390a25050565b60075481565b6001602052805f5260405f205f915054906101000a900460ff1681565b600b5f9054906101000a900460ff1615610979576040517f08c379a0000000000000000000000000000000000000000000000000000000008152600401610970906123b7565b60405180910390fd5b5f338260405160200161098d92919061257e565b6040516020818303038152906040528051906020012090505f6109f08585808060200260200160405190810160405280939291908181526020018383602002808284375f81840152601f19601f8201169050808301925050505050505083611999565b90506007548114610a36576040517f08c379a0000000000000000000000000000000000000000000000000000000008152600401610a2d906125f3565b60405180910390fd5b60085f3373ffffffffffffffffffffffffffffffffffffffff1673ffffffffffffffffffffffffffffffffffffffff1681526020019081526020015f205f9054906101000a900460ff1615610ac0576040517f08c379a0000000000000000000000000000000000000000000000000000000008152600401610ab79061265b565b60405180910390fd5b600160085f3373ffffffffffffffffffffffffffffffffffffffff1673ffffffffffffffffffffffffffffffffffffffff1681526020019081526020015f205f6101000a81548160ff02191690831515021790555082600a5f828254610b26919061243d565b925050819055505f3373ffffffffffffffffffffffffffffffffffffffff1684604051610b529061249d565b5f6040518083038185875af1925050503d805f8114610b8c576040519150601f19603f3d011682016040523d82523d5f602084013e610b91565b606091505b5050905080610bd5576040517f08c379a0000000000000000000000000000000000000000000000000000000008152600401610bcc906124fb565b60405180910390fd5b3373ffffffffffffffffffffffffffffffffffffffff167f47cee97cb7acd717b3c0aa1435d004cd5b3c8c57d70dbceb4e4458bbd60e39d485604051610c1b9190611d3e565b60405180910390a2505050505050565b60055481565b3073ffffffffffffffffffffffffffffffffffffffff163373ffffffffffffffffffffffffffffffffffffffff1614610c9f576040517f08c379a0000000000000000000000000000000000000000000000000000000008152600401610c96906126c3565b60405180910390fd5b5f600b5f6101000a81548160ff021916908315150217905550565b60025481565b610e1081565b3073ffffffffffffffffffffffffffffffffffffffff163373ffffffffffffffffffffffffffffffffffffffff1614610d34576040517f08c379a0000000000000000000000000000000000000000000000000000000008152600401610d2b906126c3565b60405180910390fd5b5f73ffffffffffffffffffffffffffffffffffffffff168173ffffffffffffffffffffffffffffffffffffffff1603610da2576040517f08c379a0000000000000000000000000000000000000000000000000000000008152600401610d999061272b565b60405180910390fd5b5f4790505f600a819055505f8273ffffffffffffffffffffffffffffffffffffffff1682604051610dd29061249d565b5f6040518083038185875af1925050503d805f8114610e0c576040519150601f19603f3d011682016040523d82523d5f602084013e610e11565b606091505b5050905080610e55576040517f08c379a0000000000000000000000000000000000000000000000000000000008152600401610e4c906124fb565b60405180910390fd5b505050565b600b5f9054906101000a900460ff1681565b3073ffffffffffffffffffffffffffffffffffffffff163373ffffffffffffffffffffffffffffffffffffffff1614610eda576040517f08c379a0000000000000000000000000000000000000000000000000000000008152600401610ed1906126c3565b60405180910390fd5b80600781905550807f42cbc405e4dbf1b691e85b9a34b08ecfcf7a9ad9078bf4d645ccfa1fac11c10b60405160405180910390a250565b3073ffffffffffffffffffffffffffffffffffffffff163373ffffffffffffffffffffffffffffffffffffffff1614610f7f576040517f08c379a0000000000000000000000000000000000000000000000000000000008152600401610f76906126c3565b60405180910390fd5b6001600b5f6101000a81548160ff021916908315150217905550565b6003602052815f5260405f20602052805f5260405f205f915091509054906101000a900460ff1681565b6004602052805f5260405f205f91509050805f015f9054906101000a900473ffffffffffffffffffffffffffffffffffffffff169080600101549080600201805461100f90612776565b80601f016020809104026020016040519081016040528092919081815260200182805461103b90612776565b80156110865780601f1061105d57610100808354040283529160200191611086565b820191905f5260205f20905b81548152906001019060200180831161106957829003601f168201915b505050505090806003015f9054906101000a900460ff16908060040154908060050154908060060154905087565b6009602052805f5260405f205f915054906101000a900460ff1681565b600a5481565b600b5f9054906101000a900460ff1615611126576040517f08c379a000000000000000000000000000000000000000000000000000000000815260040161111d906123b7565b60405180910390fd5b60015f3373ffffffffffffffffffffffffffffffffffffffff1673ffffffffffffffffffffffffffffffffffffffff1681526020019081526020015f205f9054906101000a900460ff166111af576040517f08c379a00000000000000000000000000000000000000000000000000000000081526004016111a6906127f0565b60405180910390fd5b5f60045f8381526020019081526020015f209050806003015f9054906101000a900460ff1615611214576040517f08c379a000000000000000000000000000000000000000000000000000000000815260040161120b90612858565b60405180910390fd5b60035f8381526020019081526020015f205f3373ffffffffffffffffffffffffffffffffffffffff1673ffffffffffffffffffffffffffffffffffffffff1681526020019081526020015f205f9054906101000a900460ff16156112ad576040517f08c379a00000000000000000000000000000000000000000000000000000000081526004016112a4906128c0565b60405180910390fd5b600160035f8481526020019081526020015f205f3373ffffffffffffffffffffffffffffffffffffffff1673ffffffffffffffffffffffffffffffffffffffff1681526020019081526020015f205f6101000a81548160ff021916908315150217905550806004015f815480929190611325906128de565b919050555060025481600401540361134e57610e10426113459190611cfc565b81600601819055505b3373ffffffffffffffffffffffffffffffffffffffff16827f1f7db319f45151674bbce08ad4e1093bca1941bc7ef2f91ccafd6519406f010160405160405180910390a35050565b600b5f9054906101000a900460ff16156113e5576040517f08c379a00000000000000000000000000000000000000000000000000000000081526004016113dc906123b7565b60405180910390fd5b60015f3373ffffffffffffffffffffffffffffffffffffffff1673ffffffffffffffffffffffffffffffffffffffff1681526020019081526020015f205f9054906101000a900460ff1661146e576040517f08c379a0000000000000000000000000000000000000000000000000000000008152600401611465906127f0565b60405180910390fd5b5f60055f815480929190611481906128de565b9190505590506040518060e001604052808673ffffffffffffffffffffffffffffffffffffffff16815260200185815260200184848080601f0160208091040260200160405190810160405280939291908181526020018383808284375f81840152601f19601f8201169050808301925050505050505081526020015f1515815260200160018152602001428152602001600160025414611522575f611531565b610e10426115309190611cfc565b5b81525060045f8381526020019081526020015f205f820151815f015f6101000a81548173ffffffffffffffffffffffffffffffffffffffff021916908373ffffffffffffffffffffffffffffffffffffffff1602179055506020820151816001015560408201518160020190816115a89190612ad6565b506060820151816003015f6101000a81548160ff0219169083151502179055506080820151816004015560a0820151816005015560c08201518160060155905050600160035f8381526020019081526020015f205f3373ffffffffffffffffffffffffffffffffffffffff1673ffffffffffffffffffffffffffffffffffffffff1681526020019081526020015f205f6101000a81548160ff021916908315150217905550807fc0ba8fe4b176c1714197d43b9cc6bcf797a4a7461c5fe8d0ef6e184ae7601e5160405160405180910390a25050505050565b6008602052805f5260405f205f915054906101000a900460ff1681565b3460065f3373ffffffffffffffffffffffffffffffffffffffff1673ffffffffffffffffffffffffffffffffffffffff1681526020019081526020015f205f8282546116ea9190611cfc565b9250508190555034600a5f8282546117029190611cfc565b925050819055503373ffffffffffffffffffffffffffffffffffffffff167fe1fffcc4923d04b559f4d29a8bfc6cda04eb5b0d3c460751c2402c5c5cc9109c3460405161174f9190611d3e565b60405180910390a2565b5f60045f8381526020019081526020015f209050600254816004015410156117b6576040517f08c379a00000000000000000000000000000000000000000000000000000000081526004016117ad90612bef565b60405180910390fd5b806003015f9054906101000a900460ff1615611807576040517f08c379a00000000000000000000000000000000000000000000000000000000081526004016117fe90612858565b60405180910390fd5b806006015442101561184e576040517f08c379a000000000000000000000000000000000000000000000000000000000815260040161184590612c57565b60405180910390fd5b6001816003015f6101000a81548160ff0219169083151502179055505f815f015f9054906101000a900473ffffffffffffffffffffffffffffffffffffffff1673ffffffffffffffffffffffffffffffffffffffff168260010154836002016040516118ba9190612cf5565b5f6040518083038185875af1925050503d805f81146118f4576040519150601f19603f3d011682016040523d82523d5f602084013e6118f9565b606091505b505090508061193d576040517f08c379a000000000000000000000000000000000000000000000000000000000815260040161193490612d55565b60405180910390fd5b827f33e13ecb54c3076d8e8bb8c2881800a4d972b792045ffae98fdf46df365fed7560405160405180910390a2505050565b5f5f5f5f61197d86866119ea565b92509250925061198d8282611a3f565b82935050505092915050565b5f5f8290505f5f90505b84518110156119df576119d0828683815181106119c3576119c2612d73565b5b6020026020010151611ba1565b915080806001019150506119a3565b508091505092915050565b5f5f5f6041845103611a2a575f5f5f602087015192506040870151915060608701515f1a9050611a1c88828585611bcb565b955095509550505050611a38565b5f600285515f1b9250925092505b9250925092565b5f6003811115611a5257611a51612da0565b5b826003811115611a6557611a64612da0565b5b0315611b9d5760016003811115611a7f57611a7e612da0565b5b826003811115611a9257611a91612da0565b5b03611ac9576040517ff645eedf00000000000000000000000000000000000000000000000000000000815260040160405180910390fd5b60026003811115611add57611adc612da0565b5b826003811115611af057611aef612da0565b5b03611b3457805f1c6040517ffce698f7000000000000000000000000000000000000000000000000000000008152600401611b2b9190611d3e565b60405180910390fd5b600380811115611b4757611b46612da0565b5b826003811115611b5a57611b59612da0565b5b03611b9c57806040517fd78bce0c000000000000000000000000000000000000000000000000000000008152600401611b939190612087565b60405180910390fd5b5b5050565b5f818310611bb857611bb38284611cb2565b611bc3565b611bc28383611cb2565b5b905092915050565b5f5f5f7f7fffffffffffffffffffffffffffffff5d576e7357a4501ddfe92f46681b20a0845f1c1115611c07575f600385925092509250611ca8565b5f6001888888886040515f8152602001604052604051611c2a9493929190612de8565b6020604051602081039080840390855afa158015611c4a573d5f5f3e3d5ffd5b5050506020604051035190505f73ffffffffffffffffffffffffffffffffffffffff168173ffffffffffffffffffffffffffffffffffffffff1603611c9b575f60015f5f1b93509350935050611ca8565b805f5f5f1b935093509350505b9450945094915050565b5f825f528160205260405f20905092915050565b5f819050919050565b7f4e487b71000000000000000000000000000000000000000000000000000000005f52601160045260245ffd5b5f611d0682611cc6565b9150611d1183611cc6565b9250828201905080821115611d2957611d28611ccf565b5b92915050565b611d3881611cc6565b82525050565b5f602082019050611d515f830184611d2f565b92915050565b5f604051905090565b5f5ffd5b5f5ffd5b5f73ffffffffffffffffffffffffffffffffffffffff82169050919050565b5f611d9182611d68565b9050919050565b611da181611d87565b8114611dab575f5ffd5b50565b5f81359050611dbc81611d98565b92915050565b5f819050919050565b611dd481611dc2565b8114611dde575f5ffd5b50565b5f81359050611def81611dcb565b92915050565b5f5ffd5b5f5ffd5b5f601f19601f8301169050919050565b7f4e487b71000000000000000000000000000000000000000000000000000000005f52604160045260245ffd5b611e4382611dfd565b810181811067ffffffffffffffff82111715611e6257611e61611e0d565b5b80604052505050565b5f611e74611d57565b9050611e808282611e3a565b919050565b5f67ffffffffffffffff821115611e9f57611e9e611e0d565b5b611ea882611dfd565b9050602081019050919050565b828183375f83830152505050565b5f611ed5611ed084611e85565b611e6b565b905082815260208101848484011115611ef157611ef0611df9565b5b611efc848285611eb5565b509392505050565b5f82601f830112611f1857611f17611df5565b5b8135611f28848260208601611ec3565b91505092915050565b5f5f5f60608486031215611f4857611f47611d60565b5b5f611f5586828701611dae565b9350506020611f6686828701611de1565b925050604084013567ffffffffffffffff811115611f8757611f86611d64565b5b611f9386828701611f04565b9150509250925092565b5f8115159050919050565b611fb181611f9d565b82525050565b5f602082019050611fca5f830184611fa8565b92915050565b611fd981611cc6565b8114611fe3575f5ffd5b50565b5f81359050611ff481611fd0565b92915050565b5f6020828403121561200f5761200e611d60565b5b5f61201c84828501611fe6565b91505092915050565b61202e81611d87565b82525050565b5f6020820190506120475f830184612025565b92915050565b5f6020828403121561206257612061611d60565b5b5f61206f84828501611dae565b91505092915050565b61208181611dc2565b82525050565b5f60208201905061209a5f830184612078565b92915050565b5f5ffd5b5f5ffd5b5f5f83601f8401126120bd576120bc611df5565b5b8235905067ffffffffffffffff8111156120da576120d96120a0565b5b6020830191508360208202830111156120f6576120f56120a4565b5b9250929050565b5f5f5f6040848603121561211457612113611d60565b5b5f84013567ffffffffffffffff81111561213157612130611d64565b5b61213d868287016120a8565b9350935050602061215086828701611fe6565b9150509250925092565b5f6020828403121561216f5761216e611d60565b5b5f61217c84828501611de1565b91505092915050565b5f5f6040838503121561219b5761219a611d60565b5b5f6121a885828601611fe6565b92505060206121b985828601611dae565b9150509250929050565b5f81519050919050565b5f82825260208201905092915050565b8281835e5f83830152505050565b5f6121f5826121c3565b6121ff81856121cd565b935061220f8185602086016121dd565b61221881611dfd565b840191505092915050565b5f60e0820190506122365f83018a612025565b6122436020830189611d2f565b818103604083015261225581886121eb565b90506122646060830187611fa8565b6122716080830186611d2f565b61227e60a0830185611d2f565b61228b60c0830184611d2f565b98975050505050505050565b5f5f83601f8401126122ac576122ab611df5565b5b8235905067ffffffffffffffff8111156122c9576122c86120a0565b5b6020830191508360018202830111156122e5576122e46120a4565b5b9250929050565b5f5f5f5f6060858703121561230457612303611d60565b5b5f61231187828801611dae565b945050602061232287828801611fe6565b935050604085013567ffffffffffffffff81111561234357612342611d64565b5b61234f87828801612297565b925092505092959194509250565b5f82825260208201905092915050565b7f70617573656400000000000000000000000000000000000000000000000000005f82015250565b5f6123a160068361235d565b91506123ac8261236d565b602082019050919050565b5f6020820190508181035f8301526123ce81612395565b9050919050565b7f696e73756666696369656e742062616c616e63650000000000000000000000005f82015250565b5f61240960148361235d565b9150612414826123d5565b602082019050919050565b5f6020820190508181035f830152612436816123fd565b9050919050565b5f61244782611cc6565b915061245283611cc6565b925082820390508181111561246a57612469611ccf565b5b92915050565b5f81905092915050565b50565b5f6124885f83612470565b91506124938261247a565b5f82019050919050565b5f6124a78261247d565b9150819050919050565b7f7472616e73666572206661696c656400000000000000000000000000000000005f82015250565b5f6124e5600f8361235d565b91506124f0826124b1565b602082019050919050565b5f6020820190508181035f830152612512816124d9565b9050919050565b5f8160601b9050919050565b5f61252f82612519565b9050919050565b5f61254082612525565b9050919050565b61255861255382611d87565b612536565b82525050565b5f819050919050565b61257861257382611cc6565b61255e565b82525050565b5f6125898285612547565b6014820191506125998284612567565b6020820191508190509392505050565b7f696e76616c69642070726f6f66000000000000000000000000000000000000005f82015250565b5f6125dd600d8361235d565b91506125e8826125a9565b602082019050919050565b5f6020820190508181035f83015261260a816125d1565b9050919050565b7f616c726561647920636c61696d656400000000000000000000000000000000005f82015250565b5f612645600f8361235d565b915061265082612611565b602082019050919050565b5f6020820190508181035f83015261267281612639565b9050919050565b7f4f6e6c79206d756c7469736967000000000000000000000000000000000000005f82015250565b5f6126ad600d8361235d565b91506126b882612679565b602082019050919050565b5f6020820190508181035f8301526126da816126a1565b9050919050565b7f7a65726f206164647265737300000000000000000000000000000000000000005f82015250565b5f612715600c8361235d565b9150612720826126e1565b602082019050919050565b5f6020820190508181035f83015261274281612709565b9050919050565b7f4e487b71000000000000000000000000000000000000000000000000000000005f52602260045260245ffd5b5f600282049050600182168061278d57607f821691505b6020821081036127a05761279f612749565b5b50919050565b7f6e6f74206f776e657200000000000000000000000000000000000000000000005f82015250565b5f6127da60098361235d565b91506127e5826127a6565b602082019050919050565b5f6020820190508181035f830152612807816127ce565b9050919050565b7f616c7265616479206578656375746564000000000000000000000000000000005f82015250565b5f61284260108361235d565b915061284d8261280e565b602082019050919050565b5f6020820190508181035f83015261286f81612836565b9050919050565b7f616c726561647920636f6e6669726d65640000000000000000000000000000005f82015250565b5f6128aa60118361235d565b91506128b582612876565b602082019050919050565b5f6020820190508181035f8301526128d78161289e565b9050919050565b5f6128e882611cc6565b91507fffffffffffffffffffffffffffffffffffffffffffffffffffffffffffffffff820361291a57612919611ccf565b5b600182019050919050565b5f819050815f5260205f209050919050565b5f6020601f8301049050919050565b5f82821b905092915050565b5f600883026129817fffffffffffffffffffffffffffffffffffffffffffffffffffffffffffffffff82612946565b61298b8683612946565b95508019841693508086168417925050509392505050565b5f819050919050565b5f6129c66129c16129bc84611cc6565b6129a3565b611cc6565b9050919050565b5f819050919050565b6129df836129ac565b6129f36129eb826129cd565b848454612952565b825550505050565b5f5f905090565b612a0a6129fb565b612a158184846129d6565b505050565b5f5b82811015612a3b57612a305f828401612a02565b600181019050612a1c565b505050565b601f821115612a8e5782821115612a8d57612a5a81612925565b612a6383612937565b612a6c85612937565b6020861015612a79575f90505b808301612a8882840382612a1a565b505050505b5b505050565b5f82821c905092915050565b5f612aae5f1984600802612a93565b1980831691505092915050565b5f612ac68383612a9f565b9150826002028217905092915050565b612adf826121c3565b67ffffffffffffffff811115612af857612af7611e0d565b5b612b028254612776565b612b0d828285612a40565b5f60209050601f831160018114612b3e575f8415612b2c578287015190505b612b368582612abb565b865550612b9d565b601f198416612b4c86612925565b5f5b82811015612b7357848901518255600182019150602085019450602081019050612b4e565b86831015612b905784890151612b8c601f891682612a9f565b8355505b6001600288020188555050505b505050505050565b7f7468726573686f6c64206e6f74206d65740000000000000000000000000000005f82015250565b5f612bd960118361235d565b9150612be482612ba5565b602082019050919050565b5f6020820190508181035f830152612c0681612bcd565b9050919050565b7f74696d656c6f636b206e6f7420657870697265640000000000000000000000005f82015250565b5f612c4160148361235d565b9150612c4c82612c0d565b602082019050919050565b5f6020820190508181035f830152612c6e81612c35565b9050919050565b5f8154612c8181612776565b612c8b8186612470565b9450600182165f8114612ca55760018114612cba57612cec565b60ff1983168652811515820286019350612cec565b612cc385612925565b5f5b83811015612ce457815481890152600182019150602081019050612cc5565b838801955050505b50505092915050565b5f612d008284612c75565b915081905092915050565b7f7478206661696c656400000000000000000000000000000000000000000000005f82015250565b5f612d3f60098361235d565b9150612d4a82612d0b565b602082019050919050565b5f6020820190508181035f830152612d6c81612d33565b9050919050565b7f4e487b71000000000000000000000000000000000000000000000000000000005f52603260045260245ffd5b7f4e487b71000000000000000000000000000000000000000000000000000000005f52602160045260245ffd5b5f60ff82169050919050565b612de281612dcd565b82525050565b5f608082019050612dfb5f830187612078565b612e086020830186612dd9565b612e156040830185612078565b612e226060830184612078565b9594505050505056fea2646970667358221220789f1adea4fbaa2222f7dac4bdcc8bc284b58dba31734cc946e8d9a5837bd0f964736f6c63430008210033","linkReferences":{}},"methodIdentifiers":{"TIMELOCK_DURATION()":"4623c81e","balances(address)":"27e235e3","claim(bytes32[],uint256)":"3b439351","claimed(address)":"c884ef83","confirmTransaction(uint256)":"c01a8c84","confirmed(uint256,address)":"8790c1de","deposit()":"d0e30db0","emergencyWithdrawAll(address)":"54ab6269","executeTransaction(uint256)":"ee22610b","isOwner(address)":"2f54bf6e","merkleRoot()":"2eb4a7ab","owners(uint256)":"025e7c27","pause()":"8456cb59","paused()":"5c975abb","setMerkleRoot(bytes32)":"7cb64759","submitTransaction(address,uint256,bytes)":"c6427474","threshold()":"42cde4e8","totalVaultValue()":"afbc74b9","transactions(uint256)":"9ace38c2","txCount()":"3c540687","unpause()":"3f4ba83a","usedHashes(bytes32)":"aef18bf7","verifySignature(address,bytes32,bytes)":"01751998","withdraw(uint256)":"2e1a7d4d"},"id":24}